{
  "address": "0x0F04c2628f0e5d37185ef28ba4Bfd941489A8548",
  "abi": [
    {
      "inputs": [
        {
          "internalType": "address",
          "name": "priceFeedAddress",
          "type": "address"
        },
        {
          "internalType": "string",
          "name": "lowSvg",
          "type": "string"
        },
        {
          "internalType": "string",
          "name": "highSvg",
          "type": "string"
        }
      ],
      "stateMutability": "nonpayable",
      "type": "constructor"
    },
    {
      "anonymous": false,
      "inputs": [
        {
          "indexed": true,
          "internalType": "address",
          "name": "owner",
          "type": "address"
        },
        {
          "indexed": true,
          "internalType": "address",
          "name": "approved",
          "type": "address"
        },
        {
          "indexed": true,
          "internalType": "uint256",
          "name": "tokenId",
          "type": "uint256"
        }
      ],
      "name": "Approval",
      "type": "event"
    },
    {
      "anonymous": false,
      "inputs": [
        {
          "indexed": true,
          "internalType": "address",
          "name": "owner",
          "type": "address"
        },
        {
          "indexed": true,
          "internalType": "address",
          "name": "operator",
          "type": "address"
        },
        {
          "indexed": false,
          "internalType": "bool",
          "name": "approved",
          "type": "bool"
        }
      ],
      "name": "ApprovalForAll",
      "type": "event"
    },
    {
      "anonymous": false,
      "inputs": [
        {
          "indexed": true,
          "internalType": "uint256",
          "name": "tokenId",
          "type": "uint256"
        },
        {
          "indexed": false,
          "internalType": "int256",
          "name": "highValue",
          "type": "int256"
        }
      ],
      "name": "CreatedNFT",
      "type": "event"
    },
    {
      "anonymous": false,
      "inputs": [
        {
          "indexed": true,
          "internalType": "address",
          "name": "from",
          "type": "address"
        },
        {
          "indexed": true,
          "internalType": "address",
          "name": "to",
          "type": "address"
        },
        {
          "indexed": true,
          "internalType": "uint256",
          "name": "tokenId",
          "type": "uint256"
        }
      ],
      "name": "Transfer",
      "type": "event"
    },
    {
      "inputs": [
        {
          "internalType": "address",
          "name": "to",
          "type": "address"
        },
        {
          "internalType": "uint256",
          "name": "tokenId",
          "type": "uint256"
        }
      ],
      "name": "approve",
      "outputs": [],
      "stateMutability": "nonpayable",
      "type": "function"
    },
    {
      "inputs": [
        {
          "internalType": "address",
          "name": "owner",
          "type": "address"
        }
      ],
      "name": "balanceOf",
      "outputs": [
        {
          "internalType": "uint256",
          "name": "",
          "type": "uint256"
        }
      ],
      "stateMutability": "view",
      "type": "function"
    },
    {
      "inputs": [
        {
          "internalType": "uint256",
          "name": "tokenId",
          "type": "uint256"
        }
      ],
      "name": "getApproved",
      "outputs": [
        {
          "internalType": "address",
          "name": "",
          "type": "address"
        }
      ],
      "stateMutability": "view",
      "type": "function"
    },
    {
      "inputs": [],
      "name": "getHighSVG",
      "outputs": [
        {
          "internalType": "string",
          "name": "",
          "type": "string"
        }
      ],
      "stateMutability": "view",
      "type": "function"
    },
    {
      "inputs": [],
      "name": "getLowSVG",
      "outputs": [
        {
          "internalType": "string",
          "name": "",
          "type": "string"
        }
      ],
      "stateMutability": "view",
      "type": "function"
    },
    {
      "inputs": [],
      "name": "getPriceFeed",
      "outputs": [
        {
          "internalType": "contract AggregatorV3Interface",
          "name": "",
          "type": "address"
        }
      ],
      "stateMutability": "view",
      "type": "function"
    },
    {
      "inputs": [],
      "name": "getTokenCounter",
      "outputs": [
        {
          "internalType": "uint256",
          "name": "",
          "type": "uint256"
        }
      ],
      "stateMutability": "view",
      "type": "function"
    },
    {
      "inputs": [
        {
          "internalType": "address",
          "name": "owner",
          "type": "address"
        },
        {
          "internalType": "address",
          "name": "operator",
          "type": "address"
        }
      ],
      "name": "isApprovedForAll",
      "outputs": [
        {
          "internalType": "bool",
          "name": "",
          "type": "bool"
        }
      ],
      "stateMutability": "view",
      "type": "function"
    },
    {
      "inputs": [
        {
          "internalType": "int256",
          "name": "highValue",
          "type": "int256"
        }
      ],
      "name": "mintNft",
      "outputs": [],
      "stateMutability": "nonpayable",
      "type": "function"
    },
    {
      "inputs": [],
      "name": "name",
      "outputs": [
        {
          "internalType": "string",
          "name": "",
          "type": "string"
        }
      ],
      "stateMutability": "view",
      "type": "function"
    },
    {
      "inputs": [
        {
          "internalType": "uint256",
          "name": "tokenId",
          "type": "uint256"
        }
      ],
      "name": "ownerOf",
      "outputs": [
        {
          "internalType": "address",
          "name": "",
          "type": "address"
        }
      ],
      "stateMutability": "view",
      "type": "function"
    },
    {
      "inputs": [
        {
          "internalType": "uint256",
          "name": "",
          "type": "uint256"
        }
      ],
      "name": "s_tokenIdToHighValue",
      "outputs": [
        {
          "internalType": "int256",
          "name": "",
          "type": "int256"
        }
      ],
      "stateMutability": "view",
      "type": "function"
    },
    {
      "inputs": [
        {
          "internalType": "address",
          "name": "from",
          "type": "address"
        },
        {
          "internalType": "address",
          "name": "to",
          "type": "address"
        },
        {
          "internalType": "uint256",
          "name": "tokenId",
          "type": "uint256"
        }
      ],
      "name": "safeTransferFrom",
      "outputs": [],
      "stateMutability": "nonpayable",
      "type": "function"
    },
    {
      "inputs": [
        {
          "internalType": "address",
          "name": "from",
          "type": "address"
        },
        {
          "internalType": "address",
          "name": "to",
          "type": "address"
        },
        {
          "internalType": "uint256",
          "name": "tokenId",
          "type": "uint256"
        },
        {
          "internalType": "bytes",
          "name": "data",
          "type": "bytes"
        }
      ],
      "name": "safeTransferFrom",
      "outputs": [],
      "stateMutability": "nonpayable",
      "type": "function"
    },
    {
      "inputs": [
        {
          "internalType": "address",
          "name": "operator",
          "type": "address"
        },
        {
          "internalType": "bool",
          "name": "approved",
          "type": "bool"
        }
      ],
      "name": "setApprovalForAll",
      "outputs": [],
      "stateMutability": "nonpayable",
      "type": "function"
    },
    {
      "inputs": [
        {
          "internalType": "bytes4",
          "name": "interfaceId",
          "type": "bytes4"
        }
      ],
      "name": "supportsInterface",
      "outputs": [
        {
          "internalType": "bool",
          "name": "",
          "type": "bool"
        }
      ],
      "stateMutability": "view",
      "type": "function"
    },
    {
      "inputs": [
        {
          "internalType": "string",
          "name": "svg",
          "type": "string"
        }
      ],
      "name": "svgToImageURI",
      "outputs": [
        {
          "internalType": "string",
          "name": "",
          "type": "string"
        }
      ],
      "stateMutability": "pure",
      "type": "function"
    },
    {
      "inputs": [],
      "name": "symbol",
      "outputs": [
        {
          "internalType": "string",
          "name": "",
          "type": "string"
        }
      ],
      "stateMutability": "view",
      "type": "function"
    },
    {
      "inputs": [
        {
          "internalType": "uint256",
          "name": "tokenId",
          "type": "uint256"
        }
      ],
      "name": "tokenURI",
      "outputs": [
        {
          "internalType": "string",
          "name": "",
          "type": "string"
        }
      ],
      "stateMutability": "view",
      "type": "function"
    },
    {
      "inputs": [
        {
          "internalType": "address",
          "name": "from",
          "type": "address"
        },
        {
          "internalType": "address",
          "name": "to",
          "type": "address"
        },
        {
          "internalType": "uint256",
          "name": "tokenId",
          "type": "uint256"
        }
      ],
      "name": "transferFrom",
      "outputs": [],
      "stateMutability": "nonpayable",
      "type": "function"
    }
  ],
  "transactionHash": "0x78fad945779edb86891e74895d69542636e0037a94ba6b0d38ccf59b5ddf22a4",
  "args": [
    "0x694AA1769357215DE4FAC081bf1f309aDC325306",
    "<?xml version=\"1.0\" standalone=\"no\"?>\n<svg width=\"1024px\" height=\"1024px\" viewBox=\"0 0 1024 1024\" xmlns=\"http://www.w3.org/2000/svg\">\n  <path fill=\"#333\" d=\"M512 64C264.6 64 64 264.6 64 512s200.6 448 448 448 448-200.6 448-448S759.4 64 512 64zm0 820c-205.4 0-372-166.6-372-372s166.6-372 372-372 372 166.6 372 372-166.6 372-372 372z\"/>\n  <path fill=\"#E6E6E6\" d=\"M512 140c-205.4 0-372 166.6-372 372s166.6 372 372 372 372-166.6 372-372-166.6-372-372-372zM288 421a48.01 48.01 0 0 1 96 0 48.01 48.01 0 0 1-96 0zm376 272h-48.1c-4.2 0-7.8-3.2-8.1-7.4C604 636.1 562.5 597 512 597s-92.1 39.1-95.8 88.6c-.3 4.2-3.9 7.4-8.1 7.4H360a8 8 0 0 1-8-8.4c4.4-84.3 74.5-151.6 160-151.6s155.6 67.3 160 151.6a8 8 0 0 1-8 8.4zm24-224a48.01 48.01 0 0 1 0-96 48.01 48.01 0 0 1 0 96z\"/>\n  <path fill=\"#333\" d=\"M288 421a48 48 0 1 0 96 0 48 48 0 1 0-96 0zm224 112c-85.5 0-155.6 67.3-160 151.6a8 8 0 0 0 8 8.4h48.1c4.2 0 7.8-3.2 8.1-7.4 3.7-49.5 45.3-88.6 95.8-88.6s92 39.1 95.8 88.6c.3 4.2 3.9 7.4 8.1 7.4H664a8 8 0 0 0 8-8.4C667.6 600.3 597.5 533 512 533zm128-112a48 48 0 1 0 96 0 48 48 0 1 0-96 0z\"/>\n</svg>\n",
    "<svg viewBox=\"0 0 200 200\" width=\"400\"  height=\"400\" xmlns=\"http://www.w3.org/2000/svg\">\n  <circle cx=\"100\" cy=\"100\" fill=\"yellow\" r=\"78\" stroke=\"black\" stroke-width=\"3\"/>\n  <g class=\"eyes\">\n    <circle cx=\"61\" cy=\"82\" r=\"12\"/>\n    <circle cx=\"127\" cy=\"82\" r=\"12\"/>\n  </g>\n  <path d=\"m136.81 116.53c.69 26.17-64.11 42-81.52-.73\" style=\"fill:none; stroke: black; stroke-width: 3;\"/>\n</svg>"
  ],
  "numDeployments": 1,
  "solcInputHash": "ef2d27a7298c00d512c5270ec0681f80",
  "bytecode": "0x60a06040523480156200001157600080fd5b5060405162003b2138038062003b21833981810160405281019062000037919062000570565b6040518060400160405280600f81526020017f44796e616d696320535647204e465400000000000000000000000000000000008152506040518060400160405280600381526020017f44534e00000000000000000000000000000000000000000000000000000000008152508160009081620000b4919062000855565b508060019081620000c6919062000855565b5050506000600681905550620000e2826200015260201b60201c565b60079081620000f2919062000855565b5062000104816200015260201b60201c565b6008908162000114919062000855565b508273ffffffffffffffffffffffffffffffffffffffff1660808173ffffffffffffffffffffffffffffffffffffffff168152505050505062000adb565b6060600062000188836040516020016200016d91906200097e565b604051602081830303815290604052620001eb60201b60201c565b90506040518060400160405280601a81526020017f646174613a696d6167652f7376672b786d6c3b6261736536342c00000000000081525081604051602001620001d492919062000997565b604051602081830303815290604052915050919050565b606060008251036200020f5760405180602001604052806000815250905062000373565b600060405180606001604052806040815260200162003ae16040913990506000600360028551620002419190620009ee565b6200024d919062000a58565b60046200025b919062000a90565b905060006020826200026e9190620009ee565b67ffffffffffffffff8111156200028a57620002896200040c565b5b6040519080825280601f01601f191660200182016040528015620002bd5781602001600182028036833780820191505090505b509050818152600183018586518101602084015b818310156200032e576003830192508251603f8160121c168501518253600182019150603f81600c1c168501518253600182019150603f8160061c168501518253600182019150603f8116850151825360018201915050620002d1565b6003895106600181146200034b57600281146200035c5762000367565b613d3d60f01b600283035262000367565b603d60f81b60018303525b50505050508093505050505b919050565b6000604051905090565b600080fd5b600080fd5b600073ffffffffffffffffffffffffffffffffffffffff82169050919050565b6000620003b9826200038c565b9050919050565b620003cb81620003ac565b8114620003d757600080fd5b50565b600081519050620003eb81620003c0565b92915050565b600080fd5b600080fd5b6000601f19601f8301169050919050565b7f4e487b7100000000000000000000000000000000000000000000000000000000600052604160045260246000fd5b6200044682620003fb565b810181811067ffffffffffffffff821117156200046857620004676200040c565b5b80604052505050565b60006200047d62000378565b90506200048b82826200043b565b919050565b600067ffffffffffffffff821115620004ae57620004ad6200040c565b5b620004b982620003fb565b9050602081019050919050565b60005b83811015620004e6578082015181840152602081019050620004c9565b60008484015250505050565b600062000509620005038462000490565b62000471565b905082815260208101848484011115620005285762000527620003f6565b5b62000535848285620004c6565b509392505050565b600082601f830112620005555762000554620003f1565b5b815162000567848260208601620004f2565b91505092915050565b6000806000606084860312156200058c576200058b62000382565b5b60006200059c86828701620003da565b935050602084015167ffffffffffffffff811115620005c057620005bf62000387565b5b620005ce868287016200053d565b925050604084015167ffffffffffffffff811115620005f257620005f162000387565b5b62000600868287016200053d565b9150509250925092565b600081519050919050565b7f4e487b7100000000000000000000000000000000000000000000000000000000600052602260045260246000fd5b600060028204905060018216806200065d57607f821691505b60208210810362000673576200067262000615565b5b50919050565b60008190508160005260206000209050919050565b60006020601f8301049050919050565b600082821b905092915050565b600060088302620006dd7fffffffffffffffffffffffffffffffffffffffffffffffffffffffffffffffff826200069e565b620006e986836200069e565b95508019841693508086168417925050509392505050565b6000819050919050565b6000819050919050565b600062000736620007306200072a8462000701565b6200070b565b62000701565b9050919050565b6000819050919050565b620007528362000715565b6200076a62000761826200073d565b848454620006ab565b825550505050565b600090565b6200078162000772565b6200078e81848462000747565b505050565b5b81811015620007b657620007aa60008262000777565b60018101905062000794565b5050565b601f8211156200080557620007cf8162000679565b620007da846200068e565b81016020851015620007ea578190505b62000802620007f9856200068e565b83018262000793565b50505b505050565b600082821c905092915050565b60006200082a600019846008026200080a565b1980831691505092915050565b600062000845838362000817565b9150826002028217905092915050565b62000860826200060a565b67ffffffffffffffff8111156200087c576200087b6200040c565b5b62000888825462000644565b62000895828285620007ba565b600060209050601f831160018114620008cd5760008415620008b8578287015190505b620008c4858262000837565b86555062000934565b601f198416620008dd8662000679565b60005b828110156200090757848901518255600182019150602085019450602081019050620008e0565b8683101562000927578489015162000923601f89168262000817565b8355505b6001600288020188555050505b505050505050565b600081905092915050565b600062000954826200060a565b6200096081856200093c565b935062000972818560208601620004c6565b80840191505092915050565b60006200098c828462000947565b915081905092915050565b6000620009a5828562000947565b9150620009b3828462000947565b91508190509392505050565b7f4e487b7100000000000000000000000000000000000000000000000000000000600052601160045260246000fd5b6000620009fb8262000701565b915062000a088362000701565b925082820190508082111562000a235762000a22620009bf565b5b92915050565b7f4e487b7100000000000000000000000000000000000000000000000000000000600052601260045260246000fd5b600062000a658262000701565b915062000a728362000701565b92508262000a855762000a8462000a29565b5b828204905092915050565b600062000a9d8262000701565b915062000aaa8362000701565b925082820262000aba8162000701565b9150828204841483151762000ad45762000ad3620009bf565b5b5092915050565b608051612fe362000afe60003960008181610b020152610bec0152612fe36000f3fe608060405234801561001057600080fd5b506004361061012c5760003560e01c806370a08231116100ad578063b88d4fde11610071578063b88d4fde14610343578063c87b56dd1461035f578063e425aded1461038f578063e985e9c5146103bf578063ed28a122146103ef5761012c565b806370a082311461029d57806376f6056b146102cd57806395d89b41146102eb5780639e87a5cd14610309578063a22cb465146103275761012c565b806323b872dd116100f457806323b872dd146101e757806330d871c61461020357806342842e0e146102335780636352211e1461024f5780636e02007d1461027f5761012c565b806301ffc9a71461013157806306fdde0314610161578063081812fc1461017f578063095ea7b3146101af5780631e930812146101cb575b600080fd5b61014b60048036038101906101469190611c22565b61040d565b6040516101589190611c6a565b60405180910390f35b6101696104ef565b6040516101769190611d15565b60405180910390f35b61019960048036038101906101949190611d6d565b610581565b6040516101a69190611ddb565b60405180910390f35b6101c960048036038101906101c49190611e22565b6105c7565b005b6101e560048036038101906101e09190611e98565b6106de565b005b61020160048036038101906101fc9190611ec5565b61075b565b005b61021d6004803603810190610218919061204d565b6107bb565b60405161022a9190611d15565b60405180910390f35b61024d60048036038101906102489190611ec5565b610848565b005b61026960048036038101906102649190611d6d565b610868565b6040516102769190611ddb565b60405180910390f35b610287610919565b60405161029491906120a5565b60405180910390f35b6102b760048036038101906102b291906120c0565b610923565b6040516102c491906120a5565b60405180910390f35b6102d56109da565b6040516102e29190611d15565b60405180910390f35b6102f3610a6c565b6040516103009190611d15565b60405180910390f35b610311610afe565b60405161031e919061214c565b60405180910390f35b610341600480360381019061033c9190612193565b610b26565b005b61035d60048036038101906103589190612274565b610b3c565b005b61037960048036038101906103749190611d6d565b610b9e565b6040516103869190611d15565b60405180910390f35b6103a960048036038101906103a49190611d6d565b610e18565b6040516103b69190612306565b60405180910390f35b6103d960048036038101906103d49190612321565b610e30565b6040516103e69190611c6a565b60405180910390f35b6103f7610ec4565b6040516104049190611d15565b60405180910390f35b60007f80ac58cd000000000000000000000000000000000000000000000000000000007bffffffffffffffffffffffffffffffffffffffffffffffffffffffff1916827bffffffffffffffffffffffffffffffffffffffffffffffffffffffff191614806104d857507f5b5e139f000000000000000000000000000000000000000000000000000000007bffffffffffffffffffffffffffffffffffffffffffffffffffffffff1916827bffffffffffffffffffffffffffffffffffffffffffffffffffffffff1916145b806104e857506104e782610f56565b5b9050919050565b6060600080546104fe90612390565b80601f016020809104026020016040519081016040528092919081815260200182805461052a90612390565b80156105775780601f1061054c57610100808354040283529160200191610577565b820191906000526020600020905b81548152906001019060200180831161055a57829003601f168201915b5050505050905090565b600061058c82610fc0565b6004600083815260200190815260200160002060009054906101000a900473ffffffffffffffffffffffffffffffffffffffff169050919050565b60006105d282610868565b90508073ffffffffffffffffffffffffffffffffffffffff168373ffffffffffffffffffffffffffffffffffffffff1603610642576040517f08c379a000000000000000000000000000000000000000000000000000000000815260040161063990612433565b60405180910390fd5b8073ffffffffffffffffffffffffffffffffffffffff1661066161100b565b73ffffffffffffffffffffffffffffffffffffffff161480610690575061068f8161068a61100b565b610e30565b5b6106cf576040517f08c379a00000000000000000000000000000000000000000000000000000000081526004016106c6906124c5565b60405180910390fd5b6106d98383611013565b505050565b8060096000600654815260200190815260200160002081905550610704336006546110cc565b6001600660008282546107179190612514565b925050819055506006547f882d3b5a729a8bb95cf6c0083c99b42ecd9637123d4425bd7b768877fd8af8b0826040516107509190612306565b60405180910390a250565b61076c61076661100b565b826110ea565b6107ab576040517f08c379a00000000000000000000000000000000000000000000000000000000081526004016107a2906125ba565b60405180910390fd5b6107b683838361117f565b505050565b606060006107e7836040516020016107d39190612616565b6040516020818303038152906040526113e5565b90506040518060400160405280601a81526020017f646174613a696d6167652f7376672b786d6c3b6261736536342c0000000000008152508160405160200161083192919061262d565b604051602081830303815290604052915050919050565b61086383838360405180602001604052806000815250610b3c565b505050565b6000806002600084815260200190815260200160002060009054906101000a900473ffffffffffffffffffffffffffffffffffffffff169050600073ffffffffffffffffffffffffffffffffffffffff168173ffffffffffffffffffffffffffffffffffffffff1603610910576040517f08c379a00000000000000000000000000000000000000000000000000000000081526004016109079061269d565b60405180910390fd5b80915050919050565b6000600654905090565b60008073ffffffffffffffffffffffffffffffffffffffff168273ffffffffffffffffffffffffffffffffffffffff1603610993576040517f08c379a000000000000000000000000000000000000000000000000000000000815260040161098a9061272f565b60405180910390fd5b600360008373ffffffffffffffffffffffffffffffffffffffff1673ffffffffffffffffffffffffffffffffffffffff168152602001908152602001600020549050919050565b6060600880546109e990612390565b80601f0160208091040260200160405190810160405280929190818152602001828054610a1590612390565b8015610a625780601f10610a3757610100808354040283529160200191610a62565b820191906000526020600020905b815481529060010190602001808311610a4557829003601f168201915b5050505050905090565b606060018054610a7b90612390565b80601f0160208091040260200160405190810160405280929190818152602001828054610aa790612390565b8015610af45780601f10610ac957610100808354040283529160200191610af4565b820191906000526020600020905b815481529060010190602001808311610ad757829003601f168201915b5050505050905090565b60007f0000000000000000000000000000000000000000000000000000000000000000905090565b610b38610b3161100b565b838361155d565b5050565b610b4d610b4761100b565b836110ea565b610b8c576040517f08c379a0000000000000000000000000000000000000000000000000000000008152600401610b83906125ba565b60405180910390fd5b610b98848484846116c9565b50505050565b6060610ba982611725565b610be8576040517f08c379a0000000000000000000000000000000000000000000000000000000008152600401610bdf9061279b565b60405180910390fd5b60007f000000000000000000000000000000000000000000000000000000000000000073ffffffffffffffffffffffffffffffffffffffff1663feaf968c6040518163ffffffff1660e01b815260040160a060405180830381865afa158015610c55573d6000803e3d6000fd5b505050506040513d601f19601f82011682018060405250810190610c799190612827565b505050915050600060078054610c8e90612390565b80601f0160208091040260200160405190810160405280929190818152602001828054610cba90612390565b8015610d075780601f10610cdc57610100808354040283529160200191610d07565b820191906000526020600020905b815481529060010190602001808311610cea57829003601f168201915b5050505050905060096000858152602001908152602001600020548212610db65760088054610d3590612390565b80601f0160208091040260200160405190810160405280929190818152602001828054610d6190612390565b8015610dae5780601f10610d8357610100808354040283529160200191610dae565b820191906000526020600020905b815481529060010190602001808311610d9157829003601f168201915b505050505090505b610dbe611791565b610def610dc96104ef565b83604051602001610ddb929190612a6a565b6040516020818303038152906040526113e5565b604051602001610e0092919061262d565b60405160208183030381529060405292505050919050565b60096020528060005260406000206000915090505481565b6000600560008473ffffffffffffffffffffffffffffffffffffffff1673ffffffffffffffffffffffffffffffffffffffff16815260200190815260200160002060008373ffffffffffffffffffffffffffffffffffffffff1673ffffffffffffffffffffffffffffffffffffffff16815260200190815260200160002060009054906101000a900460ff16905092915050565b606060078054610ed390612390565b80601f0160208091040260200160405190810160405280929190818152602001828054610eff90612390565b8015610f4c5780601f10610f2157610100808354040283529160200191610f4c565b820191906000526020600020905b815481529060010190602001808311610f2f57829003601f168201915b5050505050905090565b60007f01ffc9a7000000000000000000000000000000000000000000000000000000007bffffffffffffffffffffffffffffffffffffffffffffffffffffffff1916827bffffffffffffffffffffffffffffffffffffffffffffffffffffffff1916149050919050565b610fc981611725565b611008576040517f08c379a0000000000000000000000000000000000000000000000000000000008152600401610fff9061269d565b60405180910390fd5b50565b600033905090565b816004600083815260200190815260200160002060006101000a81548173ffffffffffffffffffffffffffffffffffffffff021916908373ffffffffffffffffffffffffffffffffffffffff160217905550808273ffffffffffffffffffffffffffffffffffffffff1661108683610868565b73ffffffffffffffffffffffffffffffffffffffff167f8c5be1e5ebec7d5bd14f71427d1e84f3dd0314c0f7b2291e5b200ac8c7c3b92560405160405180910390a45050565b6110e68282604051806020016040528060008152506117ce565b5050565b6000806110f683610868565b90508073ffffffffffffffffffffffffffffffffffffffff168473ffffffffffffffffffffffffffffffffffffffff16148061113857506111378185610e30565b5b8061117657508373ffffffffffffffffffffffffffffffffffffffff1661115e84610581565b73ffffffffffffffffffffffffffffffffffffffff16145b91505092915050565b8273ffffffffffffffffffffffffffffffffffffffff1661119f82610868565b73ffffffffffffffffffffffffffffffffffffffff16146111f5576040517f08c379a00000000000000000000000000000000000000000000000000000000081526004016111ec90612b2c565b60405180910390fd5b600073ffffffffffffffffffffffffffffffffffffffff168273ffffffffffffffffffffffffffffffffffffffff1603611264576040517f08c379a000000000000000000000000000000000000000000000000000000000815260040161125b90612bbe565b60405180910390fd5b61126f838383611829565b61127a600082611013565b6001600360008573ffffffffffffffffffffffffffffffffffffffff1673ffffffffffffffffffffffffffffffffffffffff16815260200190815260200160002060008282546112ca9190612bde565b925050819055506001600360008473ffffffffffffffffffffffffffffffffffffffff1673ffffffffffffffffffffffffffffffffffffffff16815260200190815260200160002060008282546113219190612514565b92505081905550816002600083815260200190815260200160002060006101000a81548173ffffffffffffffffffffffffffffffffffffffff021916908373ffffffffffffffffffffffffffffffffffffffff160217905550808273ffffffffffffffffffffffffffffffffffffffff168473ffffffffffffffffffffffffffffffffffffffff167fddf252ad1be2c89b69c2b068fc378daa952ba7f163c4a11628f55a4df523b3ef60405160405180910390a46113e083838361182e565b505050565b6060600082510361140757604051806020016040528060008152509050611558565b6000604051806060016040528060408152602001612f6e60409139905060006003600285516114369190612514565b6114409190612c41565b600461144c9190612c72565b9050600060208261145d9190612514565b67ffffffffffffffff81111561147657611475611f22565b5b6040519080825280601f01601f1916602001820160405280156114a85781602001600182028036833780820191505090505b509050818152600183018586518101602084015b81831015611517576003830192508251603f8160121c168501518253600182019150603f81600c1c168501518253600182019150603f8160061c168501518253600182019150603f81168501518253600182019150506114bc565b60038951066001811461153157600281146115415761154c565b613d3d60f01b600283035261154c565b603d60f81b60018303525b50505050508093505050505b919050565b8173ffffffffffffffffffffffffffffffffffffffff168373ffffffffffffffffffffffffffffffffffffffff16036115cb576040517f08c379a00000000000000000000000000000000000000000000000000000000081526004016115c290612d00565b60405180910390fd5b80600560008573ffffffffffffffffffffffffffffffffffffffff1673ffffffffffffffffffffffffffffffffffffffff16815260200190815260200160002060008473ffffffffffffffffffffffffffffffffffffffff1673ffffffffffffffffffffffffffffffffffffffff16815260200190815260200160002060006101000a81548160ff0219169083151502179055508173ffffffffffffffffffffffffffffffffffffffff168373ffffffffffffffffffffffffffffffffffffffff167f17307eab39ab6107e8899845ad3d59bd9653f200f220920489ca2b5937696c31836040516116bc9190611c6a565b60405180910390a3505050565b6116d484848461117f565b6116e084848484611833565b61171f576040517f08c379a000000000000000000000000000000000000000000000000000000000815260040161171690612d92565b60405180910390fd5b50505050565b60008073ffffffffffffffffffffffffffffffffffffffff166002600084815260200190815260200160002060009054906101000a900473ffffffffffffffffffffffffffffffffffffffff1673ffffffffffffffffffffffffffffffffffffffff1614159050919050565b60606040518060400160405280601d81526020017f646174613a6170706c69636174696f6e2f6a736f6e3b6261736536342c000000815250905090565b6117d883836119ba565b6117e56000848484611833565b611824576040517f08c379a000000000000000000000000000000000000000000000000000000000815260040161181b90612d92565b60405180910390fd5b505050565b505050565b505050565b60006118548473ffffffffffffffffffffffffffffffffffffffff16611b93565b156119ad578373ffffffffffffffffffffffffffffffffffffffff1663150b7a0261187d61100b565b8786866040518563ffffffff1660e01b815260040161189f9493929190612e07565b6020604051808303816000875af19250505080156118db57506040513d601f19601f820116820180604052508101906118d89190612e68565b60015b61195d573d806000811461190b576040519150601f19603f3d011682016040523d82523d6000602084013e611910565b606091505b506000815103611955576040517f08c379a000000000000000000000000000000000000000000000000000000000815260040161194c90612d92565b60405180910390fd5b805181602001fd5b63150b7a0260e01b7bffffffffffffffffffffffffffffffffffffffffffffffffffffffff1916817bffffffffffffffffffffffffffffffffffffffffffffffffffffffff1916149150506119b2565b600190505b949350505050565b600073ffffffffffffffffffffffffffffffffffffffff168273ffffffffffffffffffffffffffffffffffffffff1603611a29576040517f08c379a0000000000000000000000000000000000000000000000000000000008152600401611a2090612ee1565b60405180910390fd5b611a3281611725565b15611a72576040517f08c379a0000000000000000000000000000000000000000000000000000000008152600401611a6990612f4d565b60405180910390fd5b611a7e60008383611829565b6001600360008473ffffffffffffffffffffffffffffffffffffffff1673ffffffffffffffffffffffffffffffffffffffff1681526020019081526020016000206000828254611ace9190612514565b92505081905550816002600083815260200190815260200160002060006101000a81548173ffffffffffffffffffffffffffffffffffffffff021916908373ffffffffffffffffffffffffffffffffffffffff160217905550808273ffffffffffffffffffffffffffffffffffffffff16600073ffffffffffffffffffffffffffffffffffffffff167fddf252ad1be2c89b69c2b068fc378daa952ba7f163c4a11628f55a4df523b3ef60405160405180910390a4611b8f6000838361182e565b5050565b6000808273ffffffffffffffffffffffffffffffffffffffff163b119050919050565b6000604051905090565b600080fd5b600080fd5b60007fffffffff0000000000000000000000000000000000000000000000000000000082169050919050565b611bff81611bca565b8114611c0a57600080fd5b50565b600081359050611c1c81611bf6565b92915050565b600060208284031215611c3857611c37611bc0565b5b6000611c4684828501611c0d565b91505092915050565b60008115159050919050565b611c6481611c4f565b82525050565b6000602082019050611c7f6000830184611c5b565b92915050565b600081519050919050565b600082825260208201905092915050565b60005b83811015611cbf578082015181840152602081019050611ca4565b60008484015250505050565b6000601f19601f8301169050919050565b6000611ce782611c85565b611cf18185611c90565b9350611d01818560208601611ca1565b611d0a81611ccb565b840191505092915050565b60006020820190508181036000830152611d2f8184611cdc565b905092915050565b6000819050919050565b611d4a81611d37565b8114611d5557600080fd5b50565b600081359050611d6781611d41565b92915050565b600060208284031215611d8357611d82611bc0565b5b6000611d9184828501611d58565b91505092915050565b600073ffffffffffffffffffffffffffffffffffffffff82169050919050565b6000611dc582611d9a565b9050919050565b611dd581611dba565b82525050565b6000602082019050611df06000830184611dcc565b92915050565b611dff81611dba565b8114611e0a57600080fd5b50565b600081359050611e1c81611df6565b92915050565b60008060408385031215611e3957611e38611bc0565b5b6000611e4785828601611e0d565b9250506020611e5885828601611d58565b9150509250929050565b6000819050919050565b611e7581611e62565b8114611e8057600080fd5b50565b600081359050611e9281611e6c565b92915050565b600060208284031215611eae57611ead611bc0565b5b6000611ebc84828501611e83565b91505092915050565b600080600060608486031215611ede57611edd611bc0565b5b6000611eec86828701611e0d565b9350506020611efd86828701611e0d565b9250506040611f0e86828701611d58565b9150509250925092565b600080fd5b600080fd5b7f4e487b7100000000000000000000000000000000000000000000000000000000600052604160045260246000fd5b611f5a82611ccb565b810181811067ffffffffffffffff82111715611f7957611f78611f22565b5b80604052505050565b6000611f8c611bb6565b9050611f988282611f51565b919050565b600067ffffffffffffffff821115611fb857611fb7611f22565b5b611fc182611ccb565b9050602081019050919050565b82818337600083830152505050565b6000611ff0611feb84611f9d565b611f82565b90508281526020810184848401111561200c5761200b611f1d565b5b612017848285611fce565b509392505050565b600082601f83011261203457612033611f18565b5b8135612044848260208601611fdd565b91505092915050565b60006020828403121561206357612062611bc0565b5b600082013567ffffffffffffffff81111561208157612080611bc5565b5b61208d8482850161201f565b91505092915050565b61209f81611d37565b82525050565b60006020820190506120ba6000830184612096565b92915050565b6000602082840312156120d6576120d5611bc0565b5b60006120e484828501611e0d565b91505092915050565b6000819050919050565b600061211261210d61210884611d9a565b6120ed565b611d9a565b9050919050565b6000612124826120f7565b9050919050565b600061213682612119565b9050919050565b6121468161212b565b82525050565b6000602082019050612161600083018461213d565b92915050565b61217081611c4f565b811461217b57600080fd5b50565b60008135905061218d81612167565b92915050565b600080604083850312156121aa576121a9611bc0565b5b60006121b885828601611e0d565b92505060206121c98582860161217e565b9150509250929050565b600067ffffffffffffffff8211156121ee576121ed611f22565b5b6121f782611ccb565b9050602081019050919050565b6000612217612212846121d3565b611f82565b90508281526020810184848401111561223357612232611f1d565b5b61223e848285611fce565b509392505050565b600082601f83011261225b5761225a611f18565b5b813561226b848260208601612204565b91505092915050565b6000806000806080858703121561228e5761228d611bc0565b5b600061229c87828801611e0d565b94505060206122ad87828801611e0d565b93505060406122be87828801611d58565b925050606085013567ffffffffffffffff8111156122df576122de611bc5565b5b6122eb87828801612246565b91505092959194509250565b61230081611e62565b82525050565b600060208201905061231b60008301846122f7565b92915050565b6000806040838503121561233857612337611bc0565b5b600061234685828601611e0d565b925050602061235785828601611e0d565b9150509250929050565b7f4e487b7100000000000000000000000000000000000000000000000000000000600052602260045260246000fd5b600060028204905060018216806123a857607f821691505b6020821081036123bb576123ba612361565b5b50919050565b7f4552433732313a20617070726f76616c20746f2063757272656e74206f776e6560008201527f7200000000000000000000000000000000000000000000000000000000000000602082015250565b600061241d602183611c90565b9150612428826123c1565b604082019050919050565b6000602082019050818103600083015261244c81612410565b9050919050565b7f4552433732313a20617070726f76652063616c6c6572206973206e6f7420746f60008201527f6b656e206f776e6572206e6f7220617070726f76656420666f7220616c6c0000602082015250565b60006124af603e83611c90565b91506124ba82612453565b604082019050919050565b600060208201905081810360008301526124de816124a2565b9050919050565b7f4e487b7100000000000000000000000000000000000000000000000000000000600052601160045260246000fd5b600061251f82611d37565b915061252a83611d37565b9250828201905080821115612542576125416124e5565b5b92915050565b7f4552433732313a2063616c6c6572206973206e6f7420746f6b656e206f776e6560008201527f72206e6f7220617070726f766564000000000000000000000000000000000000602082015250565b60006125a4602e83611c90565b91506125af82612548565b604082019050919050565b600060208201905081810360008301526125d381612597565b9050919050565b600081905092915050565b60006125f082611c85565b6125fa81856125da565b935061260a818560208601611ca1565b80840191505092915050565b600061262282846125e5565b915081905092915050565b600061263982856125e5565b915061264582846125e5565b91508190509392505050565b7f4552433732313a20696e76616c696420746f6b656e2049440000000000000000600082015250565b6000612687601883611c90565b915061269282612651565b602082019050919050565b600060208201905081810360008301526126b68161267a565b9050919050565b7f4552433732313a2061646472657373207a65726f206973206e6f74206120766160008201527f6c6964206f776e65720000000000000000000000000000000000000000000000602082015250565b6000612719602983611c90565b9150612724826126bd565b604082019050919050565b600060208201905081810360008301526127488161270c565b9050919050565b7f55524920717565727920666f72206e6f6e6578697374656e7420746f6b656e00600082015250565b6000612785601f83611c90565b91506127908261274f565b602082019050919050565b600060208201905081810360008301526127b481612778565b9050919050565b600069ffffffffffffffffffff82169050919050565b6127da816127bb565b81146127e557600080fd5b50565b6000815190506127f7816127d1565b92915050565b60008151905061280c81611e6c565b92915050565b60008151905061282181611d41565b92915050565b600080600080600060a0868803121561284357612842611bc0565b5b6000612851888289016127e8565b9550506020612862888289016127fd565b945050604061287388828901612812565b935050606061288488828901612812565b9250506080612895888289016127e8565b9150509295509295909350565b7f7b226e616d65223a220000000000000000000000000000000000000000000000600082015250565b60006128d86009836125da565b91506128e3826128a2565b600982019050919050565b7f222c20226465736372697074696f6e223a22416e204e4654207468617420636860008201527f616e676573206261736564206f6e2074686520436861696e6c696e6b2046656560208201527f64222c2000000000000000000000000000000000000000000000000000000000604082015250565b60006129706044836125da565b915061297b826128ee565b604482019050919050565b7f2261747472696275746573223a205b7b2274726169745f74797065223a20226360008201527f6f6f6c6e657373222c202276616c7565223a203130307d5d2c2022696d61676560208201527f223a220000000000000000000000000000000000000000000000000000000000604082015250565b6000612a086043836125da565b9150612a1382612986565b604382019050919050565b7f227d000000000000000000000000000000000000000000000000000000000000600082015250565b6000612a546002836125da565b9150612a5f82612a1e565b600282019050919050565b6000612a75826128cb565b9150612a8182856125e5565b9150612a8c82612963565b9150612a97826129fb565b9150612aa382846125e5565b9150612aae82612a47565b91508190509392505050565b7f4552433732313a207472616e736665722066726f6d20696e636f72726563742060008201527f6f776e6572000000000000000000000000000000000000000000000000000000602082015250565b6000612b16602583611c90565b9150612b2182612aba565b604082019050919050565b60006020820190508181036000830152612b4581612b09565b9050919050565b7f4552433732313a207472616e7366657220746f20746865207a65726f2061646460008201527f7265737300000000000000000000000000000000000000000000000000000000602082015250565b6000612ba8602483611c90565b9150612bb382612b4c565b604082019050919050565b60006020820190508181036000830152612bd781612b9b565b9050919050565b6000612be982611d37565b9150612bf483611d37565b9250828203905081811115612c0c57612c0b6124e5565b5b92915050565b7f4e487b7100000000000000000000000000000000000000000000000000000000600052601260045260246000fd5b6000612c4c82611d37565b9150612c5783611d37565b925082612c6757612c66612c12565b5b828204905092915050565b6000612c7d82611d37565b9150612c8883611d37565b9250828202612c9681611d37565b91508282048414831517612cad57612cac6124e5565b5b5092915050565b7f4552433732313a20617070726f766520746f2063616c6c657200000000000000600082015250565b6000612cea601983611c90565b9150612cf582612cb4565b602082019050919050565b60006020820190508181036000830152612d1981612cdd565b9050919050565b7f4552433732313a207472616e7366657220746f206e6f6e20455243373231526560008201527f63656976657220696d706c656d656e7465720000000000000000000000000000602082015250565b6000612d7c603283611c90565b9150612d8782612d20565b604082019050919050565b60006020820190508181036000830152612dab81612d6f565b9050919050565b600081519050919050565b600082825260208201905092915050565b6000612dd982612db2565b612de38185612dbd565b9350612df3818560208601611ca1565b612dfc81611ccb565b840191505092915050565b6000608082019050612e1c6000830187611dcc565b612e296020830186611dcc565b612e366040830185612096565b8181036060830152612e488184612dce565b905095945050505050565b600081519050612e6281611bf6565b92915050565b600060208284031215612e7e57612e7d611bc0565b5b6000612e8c84828501612e53565b91505092915050565b7f4552433732313a206d696e7420746f20746865207a65726f2061646472657373600082015250565b6000612ecb602083611c90565b9150612ed682612e95565b602082019050919050565b60006020820190508181036000830152612efa81612ebe565b9050919050565b7f4552433732313a20746f6b656e20616c7265616479206d696e74656400000000600082015250565b6000612f37601c83611c90565b9150612f4282612f01565b602082019050919050565b60006020820190508181036000830152612f6681612f2a565b905091905056fe4142434445464748494a4b4c4d4e4f505152535455565758595a6162636465666768696a6b6c6d6e6f707172737475767778797a303132333435363738392b2fa26469706673582212207413bd7ea72d07bf566acf50d926b85469ff21e10ff264100fb168300ac5c98164736f6c634300081800334142434445464748494a4b4c4d4e4f505152535455565758595a6162636465666768696a6b6c6d6e6f707172737475767778797a303132333435363738392b2f",
  "devdoc": {
    "events": {
      "Approval(address,address,uint256)": {
        "details": "Emitted when `owner` enables `approved` to manage the `tokenId` token."
      },
      "ApprovalForAll(address,address,bool)": {
        "details": "Emitted when `owner` enables or disables (`approved`) `operator` to manage all of its assets."
      },
      "Transfer(address,address,uint256)": {
        "details": "Emitted when `tokenId` token is transferred from `from` to `to`."
      }
    },
    "kind": "dev",
    "methods": {
      "approve(address,uint256)": {
        "details": "See {IERC721-approve}."
      },
      "balanceOf(address)": {
        "details": "See {IERC721-balanceOf}."
      },
      "getApproved(uint256)": {
        "details": "See {IERC721-getApproved}."
      },
      "isApprovedForAll(address,address)": {
        "details": "See {IERC721-isApprovedForAll}."
      },
      "name()": {
        "details": "See {IERC721Metadata-name}."
      },
      "ownerOf(uint256)": {
        "details": "See {IERC721-ownerOf}."
      },
      "safeTransferFrom(address,address,uint256)": {
        "details": "See {IERC721-safeTransferFrom}."
      },
      "safeTransferFrom(address,address,uint256,bytes)": {
        "details": "See {IERC721-safeTransferFrom}."
      },
      "setApprovalForAll(address,bool)": {
        "details": "See {IERC721-setApprovalForAll}."
      },
      "supportsInterface(bytes4)": {
        "details": "See {IERC165-supportsInterface}."
      },
      "symbol()": {
        "details": "See {IERC721Metadata-symbol}."
      },
      "tokenURI(uint256)": {
        "details": "See {IERC721Metadata-tokenURI}."
      },
      "transferFrom(address,address,uint256)": {
        "details": "See {IERC721-transferFrom}."
      }
    },
    "version": 1
  },
  "userdoc": {
    "kind": "user",
    "methods": {},
    "version": 1
  },
  "storageLayout": {
    "storage": [
      {
        "astId": 71,
        "contract": "contracts/DynamicSvgNFT.sol:DynamicSvgNFT",
        "label": "_name",
        "offset": 0,
        "slot": "0",
        "type": "t_string_storage"
      },
      {
        "astId": 73,
        "contract": "contracts/DynamicSvgNFT.sol:DynamicSvgNFT",
        "label": "_symbol",
        "offset": 0,
        "slot": "1",
        "type": "t_string_storage"
      },
      {
        "astId": 77,
        "contract": "contracts/DynamicSvgNFT.sol:DynamicSvgNFT",
        "label": "_owners",
        "offset": 0,
        "slot": "2",
        "type": "t_mapping(t_uint256,t_address)"
      },
      {
        "astId": 81,
        "contract": "contracts/DynamicSvgNFT.sol:DynamicSvgNFT",
        "label": "_balances",
        "offset": 0,
        "slot": "3",
        "type": "t_mapping(t_address,t_uint256)"
      },
      {
        "astId": 85,
        "contract": "contracts/DynamicSvgNFT.sol:DynamicSvgNFT",
        "label": "_tokenApprovals",
        "offset": 0,
        "slot": "4",
        "type": "t_mapping(t_uint256,t_address)"
      },
      {
        "astId": 91,
        "contract": "contracts/DynamicSvgNFT.sol:DynamicSvgNFT",
        "label": "_operatorApprovals",
        "offset": 0,
        "slot": "5",
        "type": "t_mapping(t_address,t_mapping(t_address,t_bool))"
      },
      {
        "astId": 1777,
        "contract": "contracts/DynamicSvgNFT.sol:DynamicSvgNFT",
        "label": "s_tokenCounter",
        "offset": 0,
        "slot": "6",
        "type": "t_uint256"
      },
      {
        "astId": 1779,
        "contract": "contracts/DynamicSvgNFT.sol:DynamicSvgNFT",
        "label": "i_lowImageUri",
        "offset": 0,
        "slot": "7",
        "type": "t_string_storage"
      },
      {
        "astId": 1781,
        "contract": "contracts/DynamicSvgNFT.sol:DynamicSvgNFT",
        "label": "i_highImageUri",
        "offset": 0,
        "slot": "8",
        "type": "t_string_storage"
      },
      {
        "astId": 1791,
        "contract": "contracts/DynamicSvgNFT.sol:DynamicSvgNFT",
        "label": "s_tokenIdToHighValue",
        "offset": 0,
        "slot": "9",
        "type": "t_mapping(t_uint256,t_int256)"
      }
    ],
    "types": {
      "t_address": {
        "encoding": "inplace",
        "label": "address",
        "numberOfBytes": "20"
      },
      "t_bool": {
        "encoding": "inplace",
        "label": "bool",
        "numberOfBytes": "1"
      },
      "t_int256": {
        "encoding": "inplace",
        "label": "int256",
        "numberOfBytes": "32"
      },
      "t_mapping(t_address,t_bool)": {
        "encoding": "mapping",
        "key": "t_address",
        "label": "mapping(address => bool)",
        "numberOfBytes": "32",
        "value": "t_bool"
      },
      "t_mapping(t_address,t_mapping(t_address,t_bool))": {
        "encoding": "mapping",
        "key": "t_address",
        "label": "mapping(address => mapping(address => bool))",
        "numberOfBytes": "32",
        "value": "t_mapping(t_address,t_bool)"
      },
      "t_mapping(t_address,t_uint256)": {
        "encoding": "mapping",
        "key": "t_address",
        "label": "mapping(address => uint256)",
        "numberOfBytes": "32",
        "value": "t_uint256"
      },
      "t_mapping(t_uint256,t_address)": {
        "encoding": "mapping",
        "key": "t_uint256",
        "label": "mapping(uint256 => address)",
        "numberOfBytes": "32",
        "value": "t_address"
      },
      "t_mapping(t_uint256,t_int256)": {
        "encoding": "mapping",
        "key": "t_uint256",
        "label": "mapping(uint256 => int256)",
        "numberOfBytes": "32",
        "value": "t_int256"
      },
      "t_string_storage": {
        "encoding": "bytes",
        "label": "string",
        "numberOfBytes": "32"
      },
      "t_uint256": {
        "encoding": "inplace",
        "label": "uint256",
        "numberOfBytes": "32"
      }
    }
  }
}